:060000000200300200C9FD
:03000B000200B63A
:0F0030007E007F007D1475200075900075A00084
:10003F003186D2B2D288D2A8C2AAC2B9D2B8D2AFB0
:10004F007F08C29011F4DFFA11FB11CE11CE119D72
:0F005F00C28C758911758C3C758AB0C28DD2A97F
:10006E00D28CBE0007BC00167F02DFF67E00E520B4
:10007E0004B40A027400F88820119D020070310247
:0F008E00C28C758C3C758AB0C28DD28C0200700A
:0F009D00E52075F008A475F030C325F0F87A0857
:1000AC00869011F408DAF911FB22C28CDD047D1460
:0F00BC007E01758C3C758AB0C28DD28C3211CE0C
:0F00CB007C0132C007C006C0057D0D7EC87FC80E
:1000DA00DFFE7FC8DEFA7EC8DDF6D005D006D0077F
:1000EA0022C0077FFADFFED00722D2A111EBC2A0FD
:1000FA0022D2A211EBC2A2227590FFC2933092348F
:10010A0030974630965830946CD293C29130922BE5
:10011A0030973D30964F309414D291C29530922246
:10012A0030973430964630944AD29580CB75200069
:10013A00119D80C4752001119D80BD752002119DFD
:10014A0080B6752003119D80AF752004119D80A88B
:0E015A00752005119D80A1752006119D809ACB
:0E016800752007119D8093752008119D808CD5
:10017600752009119D80858002808111CE11CE22C5
:0F0186007530FF7531FF7532FF7533007534002A
:0F0195007535007536007537007538FF7539FF01
:0F01A400753AFF753BFF753C00753D00753EFFDA
:0F01B300753FFF7540FF7541007542FF754300B2
:0F01C2007544007545FF7546007547007548FF89
:0F01D100754900754AFF754B00754C00754D0060
:0F01E000754E00754FFF7550FF75510075520039
:0F01EF007553FF7554007555007556FF7557FF12
:0F01FE007558FF7559FF755AFF755B00755C00EA
:0F020D00755D00755E00755F007560FF7561FFC0
:0F021C007562FF7563FF7564007565007566FF99
:0F022B007567FF7568FF756900756AFF756B0071
:0F023A00756C00756D01756E00756F007570FF46
:0F0249007571007572FF7573007574007575001F
:0F0258007576007577FF7578FF757900757A00F8
:10026700757BFF757C00757D00757EFF757FFF22AE
:00000001FF
